:020000040000FA
:0400000008EF00F015
:08000800F2A410004DEF02F01C
:10020000949094929494956A010E306E82948CEC42
:1002100001F0380E7CEC01F08CEC01F00E0E7CEC61
:1002200001F08CEC01F0010E7CEC01F08CEC01F0A3
:10023000060E7CEC01F08CEC01F0800E7CEC01F001
:100240008CEC01F0F294F28AF28EA4EC01F0680ECC
:10025000D56EFF0ED66E80A8FAD781B003D081B8D4
:100260000CD0FBD7010E7CEC01F098EC01F0D58EA0
:1002700000500126006A0CD0EAD7010E7CEC01F098
:100280008CEC01F0D58E00500226006A01D0DFD739
:100290000250015C036E00D0200E84EC01F098EC5B
:1002A00001F0200E84EC01F098EC01F0200E84ECBB
:1002B00001F098EC01F0200E84EC01F098EC01F0D4
:1002C000200E84EC01F098EC01F0200E84EC01F09B
:1002D00098EC01F0200E84EC01F098EC01F098EC21
:1002E00001F0035022EC02F098EC01F080CF77F09F
:1002F00077508062ACD7FDD7836E829082928284E1
:1003000098EC01F082941200836E82808292828443
:1003100098EC01F082941200000ECD6E3C0ECF6E70
:10032000B00ECE6E9E94CD809EA0FED7CD901200D2
:10033000300ECD6EF40ECF6E240ECE6E9E90CD801C
:100340009EA0FED7CD901200200E84EC01F098EC18
:1003500001F0200E84EC01F098EC01F0200E84EC0A
:1003600001F098EC01F0200E84EC01F098EC01F023
:10037000200E84EC01F098EC01F0560E84EC01F0B4
:1003800098EC01F0490E84EC01F098EC01F0530E6A
:1003900084EC01F098EC01F0490E84EC01F098EC4B
:1003A00001F0540E84EC01F098EC01F04F0E84EC57
:1003B00001F098EC01F0520E84EC01F098EC01F0A1
:1003C000C00E7CEC01F098EC01F0200E84EC01F002
:1003D00098EC01F0200E84EC01F098EC01F0200E76
:1003E00084EC01F098EC01F0200E84EC01F098EC24
:1003F00001F0200E84EC01F098EC01F0430E84EC47
:1004000001F098EC01F04F0E84EC01F098EC01F053
:10041000550E84EC01F098EC01F04E0E84EC01F0E6
:1004200098EC01F0540E84EC01F098EC01F0450ECC
:1004300084EC01F098EC01F0520E84EC01F098ECA1
:1004400001F01200356E0A0E556E35600DD0300E7B
:100450003526300E84EC01F098EC01F0355084EC38
:1004600001F098EC01F01200000E076E35C036F076
:100470000A0E072A365EFDE707063626300E0726E7
:10048000075084EC01F098EC01F0300E362636501F
:0A04900084EC01F098EC01F012007A
:08070000002AD59EF2941000BE
:020000040030CA
:0300010022020ECA
:02000500018078
:060008000FC00FE00F40E5
:00000001FF
