:020000040000FA
:10000000000E326E949094929494956A010E306E24
:100010008294B7EC01F0380EA7EC01F0B7EC01F0D8
:100020000E0EA7EC01F0B7EC01F0010EA7EC01F009
:10003000B7EC01F0060EA7EC01F0B7EC01F0800E72
:10004000A7EC01F0B7EC01F0010EA7EC01F0FAEC1F
:1000500001F093809388200EAFEC01F0FAEC01F0F0
:10006000200EAFEC01F0FAEC01F0200EAFEC01F045
:10007000FAEC01F0200EAFEC01F0FAEC01F0470EC3
:10008000AFEC01F0FAEC01F0520EAFEC01F0FAEC3B
:1000900001F04F0EAFEC01F0FAEC01F0550EAFECB1
:1000A00001F0FAEC01F0500EAFEC01F0FAEC01F0C7
:1000B000200EAFEC01F0FAEC01F0230EAFEC01F0F2
:1000C000FAEC01F0200EAFEC01F0FAEC01F0300E8A
:1000D000AFEC01F0FAEC01F0310EAFEC01F0FAEC0C
:1000E00001F0C00EA7EC01F0FAEC01F0200EAFEC2D
:1000F00001F0FAEC01F0200EAFEC01F0FAEC01F0A7
:10010000460EAFEC01F0FAEC01F0490EAFEC01F055
:10011000FAEC01F04E0EAFEC01F0FAEC01F0410EFA
:10012000AFEC01F0FAEC01F04C0EAFEC01F0FAECA0
:1001300001F0200EAFEC01F0FAEC01F0500EAFEC44
:1001400001F0FAEC01F0520EAFEC01F0FAEC01F024
:100150004F0EAFEC01F0FAEC01F04A0EAFEC01F0FB
:10016000FAEC01F0450EAFEC01F0FAEC01F0430EB1
:10017000AFEC01F0FAEC01F0540EAFEC01F0FAEC48
:1001800001F081A0FED7010EA7EC01F0FAEC01F01E
:10019000200EAFEC01F0FAEC01F0500EAFEC01F0E4
:1001A000FAEC01F0450EAFEC01F0FAEC01F0520E62
:1001B000AFEC01F0FAEC01F0530EAFEC01F0FAEC09
:1001C00001F04F0EAFEC01F0FAEC01F04E0EAFEC87
:1001D00001F0FAEC01F0200EAFEC01F0FAEC01F0C6
:1001E000450EAFEC01F0FAEC01F04E0EAFEC01F071
:1001F000FAEC01F0540EAFEC01F0FAEC01F0450E10
:10020000AFEC01F0FAEC01F0520EAFEC01F0FAECB9
:1002100001F0450EAFEC01F0FAEC01F0440EAFEC4A
:1002200001F0FAEC01F0070ED56E81B817D0F00E90
:10023000D76EBE0ED66EF294D58EF2A4FED7D59EA2
:100240003B0E326002D0322AF0D7326A3B0E336066
:1002500002D0332AEAD7336A342AE7D7010EA7EC53
:1002600001F0FAEC01F0200EAFEC01F0FAEC01F035
:10027000200EAFEC01F0FAEC01F0200EAFEC01F033
:10028000FAEC01F0200EAFEC01F0FAEC01F0345082
:10029000C3EC01F03A0EAFEC01F0FAEC01F0335090
:1002A000C3EC01F03A0EAFEC01F0FAEC01F0325081
:1002B000C3EC01F0C00EA7EC01F0FAEC01F0200E47
:1002C000AFEC01F0FAEC01F0200EAFEC01F0FAEC2B
:1002D00001F0200EAFEC01F0FAEC01F0200EAFECD3
:1002E00001F0FAEC01F0480EAFEC01F0FAEC01F08D
:1002F000480EAFEC01F0FAEC01F03A0EAFEC01F071
:10030000FAEC01F04D0EAFEC01F0FAEC01F04D0EFD
:10031000AFEC01F0FAEC01F03A0EAFEC01F0FAECC0
:1003200001F0530EAFEC01F0FAEC01F0530EAFEC1C
:1003300001F0FAEC01F09DEF01F0FFD7D59EF00E31
:10034000D76EBD0ED66ED58EF2A4FED71200836E88
:10035000829082928284B7EC01F082941200836EC4
:10036000828082928284B7EC01F082941200080E9F
:10037000D56E3C0ED76EB00ED66EF294D58EF2A42A
:10038000FED7D59E1200356E0A0E556E35600DD023
:10039000300E3526300EAFEC01F0B7EC01F03550E1
:1003A000AFEC01F0B7EC01F01200000E076E35C0A3
:1003B00036F00A0E072A365EFDE707063626300EAF
:1003C00007260750AFEC01F0FAEC01F0300E3626AC
:1003D0003650AFEC01F0FAEC01F01200080ED56EC9
:1003E000C50ED76E680ED66EF294D58EF2A4FED7E7
:1003F000D59E1200080ED56EFC0ED76E180ED66E66
:0C040000F294D58EF2A4FED7D59E120017
:020000040030CA
:0300010022020ECA
:02000500018078
:060008000FC00FE00F40E5
:00000001FF
